:020000040800F2
:10000000105D00209D0100085D410008F9310008E5
:1000100059410008D9020008514A000800000000B8
:10002000000000000000000000000000F142000895
:100030002503000800000000614100082543000876
:10004000B7010008B7010008B7010008B7010008B0
:10005000B7010008B7010008B7010008B7010008A0
:10006000B7010008B7010008B7010008B701000890
:10007000B7010008F502000801030008B7010008F5
:100080000D030008B7010008B7010008B701000818
:10009000DD020008B7010008B7010008B701000839
:1000A000B7010008B7010008B7010008B701000850
:1000B000B7010008B7010008B7010008B701000840
:1000C000B7010008B7010008B7010008B701000830
:1000D000B7010008B7010008454A0008B701000849
:1000E000B7010008B7010008B7010008B701000810
:1000F000B701000815440008B7010008B70100085F
:10010000B7010008B7010008B7010008B7010008EF
:10011000B7010008B7010008B7010008B7010008DF
:10012000B7010008B701000819030008B70100086B
:10013000B7010008B7010008B7010008B7010008BF
:10014000B7010008E9020008B7010008B70100087C
:10015000B7010008B7010008B7010008B70100089F
:10016000B7010008B7010008B7010008B70100088F
:10017000B7010008B7010008B7010008000000003F
:10018000B7010008B7010008DFF80CD000F08CF8C8
:100190000048004779510008105D0020064880475C
:1001A00006480047FEE7FEE7FEE7FEE7FEE7FEE75C
:1001B000FEE7FEE7FEE7FEE70144000889010008CC
:1001C0002DE9F05F0546002092469B46884606468C
:1001D000814640241BE0284641464746224600F01F
:1001E00053F853465A46C01A914110D31146184647
:1001F000224600F03AF82D1A67EB01084F462246D6
:100200000120002100F031F817EB00094E41201EBB
:10021000A4F10104DFDC484631462A464346BDE8E6
:10022000F09F40EA01039B0703D009E008C9121FB1
:1002300008C0042AFAD203E011F8013B00F8013BA0
:10024000521EF9D27047D2B201E000F8012B491ECC
:10025000FBD270470022F6E710B513460A46044663
:100260001946FFF7F0FF204610BD202A04DB203A94
:1002700000FA02F1002070479140C2F1200320FAF9
:1002800003F3194390407047202A04DB203A21FAF7
:1002900002F00021704721FA02F3D040C2F120029F
:1002A00091400843194670471CB509480090094819
:1002B00001900546009C06E0E06840F0010394E8E8
:1002C000070098471034AC42F6D3FFF761FF0000F7
:1002D000646C0008846C0008FEE7000040F2E02037
:1002E000C2F2000000F098B940F20830C2F20000FB
:1002F00000F092B940F25C30C2F2000000F0A0BC05
:1003000040F27C40C2F2000000F09ABC40F21C4077
:10031000C2F2000000F094BC40F2BC30C2F2000017
:1003200000F08EBC7047000072B600BFFEE7000010
:1003300090F82020013A012A08D8006800F1140240
:100340000020136819431160704700BF00F12402B8
:1003500001204FF480211368194311607047000099
:1003600010B590F820E0D0F800C0AEF1010EBEF15B
:10037000010FDCF808E011D81EF0E05F18D0CEF3D2
:1003800001640120A04018608B68DBB1D1F804E063
:10039000C86840EACE0040EA030E17E000F12403EB
:1003A00001204FF480211A681143196010BD00BF6D
:1003B00000F1240301204FF400111A681143196061
:1003C00010BD00BF0868CB6843EA405E0CF5C07002
:1003D00000EB0413240140F804E00C69184640F8CF
:1003E000044F097D012903D1016841F48071016046
:1003F00050680121D8601068986000201A68114385
:10040000196010BD90F82020013A012A30D8B0B50B
:1004100046F20060C4F20000026842F0010202608D
:10042000026822F47C520260D1F814E0CC694A6A76
:100430000368012C43EA022202600EF01F024FF013
:10044000010303FA02F2C3696FEA020C23EA020312
:10045000C36113D02CBBC36803EA0C03C360CB6831
:100460008C8844EA034300EBCE0423640B4611E07E
:10047000416A41F48021416201207047C3681343FF
:10048000C3600B688C8844EA034300EBCE0423640A
:1004900001F10C038C681B8843EA044300EBCE0493
:1004A000636443688D6943EA0204D1F810E0096A85
:1004B000002D08BF03EA0C0444604369BEF1000F3D
:1004C00043EA020408BF03EA0C040129446102D193
:1004D000C1691143C161016821F00101016000207F
:1004E000B0BD000070470000B0B590F82040013C5E
:1004F000012C7DD8D0F800C000290CBFDCF80C40DE
:10050000DCF81040A4077DD00CF5D8754FEA011C2B
:1005100055F80C4014F00404946055F80CE005EB19
:10052000011C19BF4FEADE0555604FEA5E551560A4
:10053000DCF80050E64605F00205D5605EF8044F91
:1005400024075ABFDEF8004004F00F0408241461A9
:10055000DEF800400029C4F307249461DEF800505F
:100560004FEA15455561DCF808201A70026802EB65
:100570000112D2F8B8214FEA12225A70026802EB37
:100580000112D2F8B8214FEA12429A70026802EBC7
:100590000112D2F8B8214FEA1262DA70026802EB57
:1005A0000112D2F8BC211A71026802EB0112D2F8D2
:1005B000BC214FEA12225A71026802EB0112D2F8F2
:1005C000BC214FEA12429A71026802EB0112D2F882
:1005D000BC214FEA1262DA7100680CBF00F10C0115
:1005E00000F11001002020220B681A430A60B0BD00
:1005F00000F1240101204FF480220B681A430A60A5
:10060000B0BD00BF00F1240101204FF400120B68BF
:100610001A430A60B0BD00002DE9F04F81B00446D6
:1006200000684669D0F804908768D0F80CB0D0F81C
:1006300010A0D0F81880F10704D1002530071DD490
:1006400024E000BFF90710D00121BA07816009D466
:10065000780700F1AF80380700F1B680204600F03F
:1006600087FA02E0204600F085FA0025F80500F13F
:100670008780F80300F1B180300707D51BF0100028
:1006800004D0206845F400751021C160700708D5BA
:100690001BF0080005D020680821C160204600F04A
:1006A000F5F9B00706D52068C068800702D020465B
:1006B00000F0EEF9700607D51AF0100004D020689B
:1006C00045F4806510210161B00608D51AF00800D4
:1006D00005D0206808210161204600F009FAF006E3
:1006E00006D520680069800702D0204600F002FA93
:1006F000B00308D519F0100005D020681021416022
:10070000204600F005FAF00308D519F0080005D0DE
:10071000206808214160204600F036FA300440F19C
:100720009B805FEA497040F1948006F4807008EA8B
:10073000102028435FEA8871014648BF41F002015A
:10074000B20558BF01465FEA48700D4648BF45F004
:100750000405700558BF0D46300540F17A8018F049
:10076000700000F076801038000905286CD8DFE8AA
:1007700000F003655D61596945F0080564E000BF5C
:1007800020684FF48071BA0581600BD4780515D4C8
:1007900038051DD4204600F0EFF9F8037FF56CAF63
:1007A0001BE000BF204600F0E9F9F8037FF564AFD5
:1007B00013E000BF4FF4006558E700BF05F5005592
:1007C000F8037FF559AF08E04FF480554EE700BFBE
:1007D00005F58045F8037FF54FAF20684FF4803171
:1007E000BA0381600AD4780310D4380314D42046A5
:1007F00000F0C6F930073FF541AF47E7204600F06B
:10080000C1F930073FF53AAF40E700BF05F50045B5
:1008100030073FF533AF39E705F5803530073FF551
:100820002DAF33E745F080050EE000BF45F0200511
:100830000AE000BF45F0400506E000BF45F01005A6
:1008400002E000BF45F480752068816921F07001E5
:10085000816120680421416055B1606A40EA050168
:100860002046616201B0BDE8F04FFFF73BBE00BF1C
:1008700001B0BDE8F08F0000002804BF01207047E0
:10088000B0B5044690F8200010B9204600F06EF88C
:100890002068016841F00101016000F0AFFC0546ED
:1008A00020684168C90705D100F0A8FC401B0B284F
:1008B000F6D310E0016821F00201016000F09EFC17
:1008C000054600BF2068416889070DD500F096FCF9
:1008D000401B0B28F6D3606A052140F400306062AB
:1008E000012084F82010B0BD217E0268012922F089
:1008F000800208BF80320260617E0268012922F016
:10090000400208BF40320260A17E0268012922F045
:10091000200208BF20320260E17E0268012922F035
:10092000100218BF10320260217F0268012922F0F4
:10093000080208BF08320260617F0268012922F0C4
:10094000040208BF04320260D4E901C2D4E90335CD
:1009500061691A432A431143ACF101021143C16199
:1009600000200121606284F82010B0BD10B586B06F
:10097000006846F60002C4F2000200219042CDE970
:100980000411CDE90211019134D046F20041C4F2C4
:100990000001884277D140F27811C2F200010A6862
:1009A00043F64000C4F20200531C0B6052B9002110
:1009B0000091016841F000710160016801F000716F
:1009C000009100990021009150F8101C142441F06E
:1009D000080140F8101C50F8100C032100F008002A
:1009E0000090009840F20040C4F2020000F5006060
:1009F00035E000BF43F64000C4F2020000910168F8
:100A000041F080610160016801F08061009100990E
:100A100040F27811C2F200010A68531C0B6052B90F
:100A200000210091016841F000710160016801F04E
:100A30000071009100990021009150F8101C412490
:100A400041F0020140F8101C50F8100C602100F039
:100A500002000090009840F20040C4F202000191B0
:100A600002210291002103910321049109210591A2
:100A700001A900F0DFFA20460521002200F07CFCED
:100A8000204600F067FC06B010BD00007047000073
:100A900080B58AB003AA01AB0021FFF725FD0398BA
:100AA000A0F20521032920D8FB30C1B2BDF80420F3
:100AB000890051FA80F040F2A67112BAC2F2000128
:100AC000120C31F8103021F8102001EB4000BDF875
:100AD0000610BDF8082009BA090C418011BA9DF82A
:100AE0000A20090C0381818082710AB080BD000058
:100AF0007047000010B58AB001AC03AA012123465B
:100B0000FFF7F2FC204603F0B3FF0AB010BD00006F
:100B100070470000B0B5044690F8200001281DD1B0
:100B2000022084F820002068016821F001010160A2
:100B300000F064FB054600BF20684068C00713D082
:100B400000F05CFB401B0B28F6D3606A40F40030D9
:100B50006062052084F820000120B0BD606A40F486
:100B6000002060620120B0BD00206062B0BD0000C6
:100B70007047000070470000704700007047000099
:100B800070470000704700007047000070B5866D28
:100B9000044600F033FB94F83510022928D10546AD
:100BA0002068216C026822F016020260426922F07D
:100BB0008002426109B9A16C19B1016821F00801F4
:100BC0000160016821F00101016000BF2068006838
:100BD000C00715D000F012FB401B0628F6D32020DA
:100BE0006065032084F83500002184F8341070BD5E
:100BF000802060650120002184F8341070BD00BFA2
:100C0000E06D3F2101FA00F0B060012084F835006A
:100C10000020002184F8341070BD000090F83510D9
:100C2000022909D1052180F835100068016821F0FA
:100C3000010101600020704780214165012070475B
:100C4000F0B581B00021009140F20801C2F200012C
:100C50000B68D0E9166148F2B51537680822C1F66D
:100C60004E358A403A42A3FB05350CD003681C6818
:100C7000640708D51C6824F004041C60B260426D4F
:100C800042F00102426501228A403A4208D00368DC
:100C90005B691B0604D5B260426D42F002024265F8
:100CA00004228A403A4208D003681B689B0704D597
:100CB000B260426D42F00402426510228A403A421C
:100CC00019D001680B681B0715D5B2600B680A685C
:100CD0005B0309D4D20509D40A6822F008020A602D
:100CE000016C29B907E000BF110341D4016C11B1B7
:100CF000044688472046C26D202101FA02F33B4298
:100D000043D001680F68FF063FD5B36090F8357097
:100D10000B68052F1CD123F016030B604B6923F0E1
:100D200080034B61036C0BB9836C1BB10B6823F020
:100D300008030B603F219140B160012180F835101C
:100D4000016D0022002980F8342054D158E000BF02
:100D50000A685B0310D4D20512D40A6822F010028C
:100D60000A60012180F83510002180F8341007E076
:100D7000816C0029BCD1BEE7110301D4416C00E0B5
:100D8000C16B11B1044688472046416DC1B3416D26
:100D9000C9072ED0052180F835100168AA0A0B6812
:100DA00023F001030B60009B0133934200931AD898
:100DB0000B68DB0717D0009B01339342009312D8D6
:100DC0000B68DB070FD0009B0133934200930AD8D6
:100DD0000B68DB0707D0009B01339342009302D8D6
:100DE0000B68DB07DFD1012180F83510002180F886
:100DF0003410C16C21B101B0BDE8F040084700BF1C
:100E000001B0F0BD2DE9F041044600F0F7F9ECB176
:100E10000546022084F835000020216884F834005B
:100E2000086820F00100086021680868C00711D038
:100E300000F0E4F9401B0528F6D903252023032000
:100E4000636584F83550BDE8F08100BF0120BDE83E
:100E5000F08100BF086848F23F02CFF21002D4E9E7
:100E6000013500EA020C04F10C0898E8C10143EADC
:100E70000C032B431843D4E9072E30433843104367
:100E8000626A40EA0E00042A40EA08031CD1206B83
:100E9000D4E90A2E40EA0E00184308604869BEF102
:100EA000000F20F0030040EA020040F0040C11D0D3
:100EB000B8F5005F36D0B8F1000F45D1022A46D010
:100EC000012A3BD032B942E00B60486920F00700AC
:100ED00040EA020C01F0F8004AF6AB221038CAF6DC
:100EE000AA22A0FB02231A0946F65043C1F814C0F7
:100EF000C0F600039A5C40F2FF335F284FF03F00DA
:100F000021EA030100FA02F088BF0431C4E9161295
:100F10008860002301250020636584F83550BDE812
:100F2000F08100BF032AD5D8012540230120DFE846
:100F300002F0030E030500BF82E700BFAEF1C070F0
:100F4000B0FA80F0400904E0032A04D3C2D1CEF302
:100F500000600028BED0012540230120636584F88D
:100F60003550BDE8F081000090F834C0BCF1010FAD
:100F700004BF0220704770B54FF0010C80F834C0F8
:100F8000D0F858E090F835C0BCF1010F38D14FF0DF
:100F9000020C80F835C04FF0000CC0F854C0D0F8F7
:100FA00000C08468056CC06DDCF80060402C26F43D
:100FB0008026CCF80060CCF804300B4604BF134602
:100FC0000A463F2101FA00F0CCF80830CCF80C209A
:100FD000CEF80800DCF8000040F01600CCF8000065
:100FE0002DB1DCF8000040F00800CCF80000DCF87F
:100FF000000040F00100CCF80000002070BD00BFF0
:10100000002180F83410022070BD0000B0B5044605
:1010100000F0F4F8054640F20000C2F2000000784B
:10102000611C18BF044400BF00F0E8F8401BA04258
:10103000FAD3B0BD2DE9F04F83B000F1200200F1EA
:101040003E4741F60045009207F1FF77C4F20205E2
:1010500008224FEAB726A84208BF072200254FF012
:1010600000084FF00009072E38BF4FEAB72201925F
:101070000AE000BF09F1010908F10208B9F1100FF7
:1010800005F1040500F0A2800F68012202FA09FEB2
:1010900017EA0E0AEED0D1F804C003220CF00307C1
:1010A0007E1E02FA08F4012E6FEA040B12D884683F
:1010B000CE6804EA0B0406FA08F6344384604468F8
:1010C00024EA0E06CCF3001404FA09F42643466021
:1010D00004E000BF032F01D103271EE0C6688C681F
:1010E00006EA0B0604FA08F42643022FC66014D160
:1010F0006FF00302009E02EA590756F807C005F098
:101100001C040F220B69A2402CEA0202A3401A43DE
:10111000F251D1F804C00CF00307026807FA08F393
:1011200002EA0B021A431CF4403F0260A2D00022E4
:1011300043F644030292C4F202031A6843F60044E1
:1011400042F480421A601A68C4F2010402F4804238
:101150000292029A29F003024FF6084C2244CFF67D
:10116000FF7C52F80C3005F00C070F26BE40B3434D
:10117000019E06FA07F73B4342F80C30A2684B6821
:1011800042EA0A0743F60C4CDE0258BF22EA0A077D
:10119000A760C4F2010CDCF800209E0242EA0A07B4
:1011A00058BF22EA0A07CCF8007062689E0342EA40
:1011B0000A0758BF22EA0A0767602268DB0342EA8F
:1011C0000A0758BF22EA0A07276053E703B0BDE8C1
:1011D000F08F00000069084018BF01207047000030
:1011E000426902EA0103914341EA03418161704788
:1011F000002A08BF090481617047000045F2B86009
:10120000C2F200000068704740F2000045F2B86189
:10121000C2F20000C2F2000100780A6810440860BF
:101220007047000080B543F60040C4F20200016838
:1012300041F400710160016841F48061016001685E
:1012400041F480710160032000F0C2F80F2000F02B
:1012500005F800F05DF8002080BD000070B586B094
:10126000002543F640010195C4F202010A680446D4
:1012700042F480720A60096801A801F4807101914A
:101280000199694600F066F9049E002E18BF0126F8
:1012900000F080F94DF68361B040C4F21B31A0FB31
:1012A00001014FF0FF3000EB914140F22C6042F21F
:1012B0000002C2F20000C4F2000240F2E733C0E9CB
:1012C0000021C0E902530561856100F07DFE08B18F
:1012D00006B070BD40F22C60C2F2000000F0BCFE0F
:1012E0000028F5D12D2000F035F80F2C0CD82D203A
:1012F0002146002200F040F840F204010020C2F232
:1013000000010C6006B070BD012006B070BD000089
:1013100082B0002043F640010190C4F202014A6805
:1013200042F480424A604A6802F480420192019A83
:1013300000900868002240F08050086008680F2183
:1013400000F08050009000986FF0010002B000F0B3
:1013500013B80000002848BF704700F01F010122A9
:1013600002FA01F11C2202EAD0004EF20012CEF283
:10137000000281507047000010B54EF60C5CCEF2B2
:10138000000CDCF80030C3F3022E8EF00704042CAE
:1013900028BF0424BEF103034FF0FF3E0EFA04F40D
:1013A00038BF0023A14399400EFA03F39A43114337
:1013B00000F00F0200F160430901043A03F56443B1
:1013C0006244002848BF02F10C03197010BD0000F0
:1013D0004EF60C51CEF200010A684FF6FF031A4098
:1013E00060F30A2242F0806040F0FD7008607047B0
:1013F000002804BF012070472DE9F04143F608089A
:10140000C4F202080446D8F8F8030D4600F00700BD
:10141000814207D988F8F853D8F8F80300F007009C
:10142000A84277D12068810717D5410705D5D8F89C
:10143000001041F4E051C8F80010010705D5D8F8B4
:10144000001041F46041C8F80010D8F80010A268FC
:1014500021F0F0011143C8F80010C00740D1D8F8BE
:10146000F80300F00700854207D288F8F853D8F84F
:10147000F80300F00700A8424CD12068410707D5C7
:10148000D8F80010E26821F4E0511143C8F80010C8
:10149000000708D5D8F80000216920F4604040EA30
:1014A000C100C8F8000000F09DF8D8F8001046F61A
:1014B0003842C1F30311C0F60002515C40F2080249
:1014C00020FA01F140F20400C2F200000068C2F20A
:1014D00000021160FFF7C2FE0020BDE8F08100BFEE
:1014E0006068811E022907D258F8081C89015CBF78
:1014F0000120BDE8F08111E0012807D158F8081C4F
:1015000089035CBF0120BDE8F08107E058F8081CA2
:10151000890703D40120BDE8F08100BFD8F800108E
:1015200021F003010843C8F80000FFF767FE0646F4
:1015300041F28837D8F80000616800F00C00B0EB89
:10154000810F8CD0FFF75AFE801BB842F2D90320DE
:10155000BDE8F0810F22026043F60802C4F20202E5
:10156000136803F003034360136803F0F003836020
:10157000136803F4E053C360D2F800C04FF4E053A3
:1015800003EADC030361D2F8F80300F00700086007
:101590007047000040F2080043F60801C2F2000064
:1015A000C4F202010068096846F64842C1F382218C
:1015B000C0F60002515CC8407047000040F20800CD
:1015C00043F60801C2F20000C4F202010068096893
:1015D00046F64842C1F34231C0F60002515CC840B1
:1015E0007047000010B543F60404C4F202046168B9
:1015F000C1F3810142F20040C0F2F400DFE801F0E3
:1016000002040A0210BD00BF41F60030C0F2B7006C
:1016100010BD00BF206821682368490241F60031EF
:10162000C0F2B70100F03F02C3F388105CBF42F282
:101630000041C0F2F401A1FB00010023FEF7C0FD50
:1016400021680222C1F3014102EB4101B0FBF1F03C
:1016500010BD0000002804BF012070472DE9F041B3
:1016600082B00446007843F60006C007C4F20206C2
:101670000CD0B06800F00C00042840F08180306885
:10168000800303D56068002800F068812078800717
:101690001BD5B06810F00C0F09D0B06800F00C003A
:1016A000082840F087807068400200F1838030682D
:1016B000800703D5E068012840F050813068216937
:1016C00020F0F80040EAC10030602078000713D411
:1016D000207840072AD4A569002D00F03A81B0682F
:1016E00000F00C00082840F0A580012D40F00E818C
:1016F000012002B0BDE8F0816069002800F082801E
:101700000020C4F247200121C0F8801EFFF776FDBB
:10171000054600BF706F8007DAD4FFF76FFD401BEE
:101720000228F7D9032002B0BDE8F081306C5FEAEF
:10173000C0080AD400200190306C40F08050306422
:10174000306C00F080500190019847F20007C4F21D
:1017500000073868C00547D4386840F480703860A6
:10176000FFF74CFD054600BF3868C0053CD4FFF7C5
:1017700045FD401B0228F7D9032002B0BDE8F081E7
:10178000B06800F00C00082803D1706840023FF5F3
:1017900076AF61683068B1F5803F07D0B1F5A02F12
:1017A00040F09A8040F480203060306840F480300F
:1017B00030609AE0E068002840F20000C4F2472060
:1017C0005CD001210160FFF719FD054630688007F4
:1017D0003FF574AFFFF712FD401B0228F6D9032036
:1017E00002B0BDE8F08100BFA168306F012905D0CB
:1017F000052955D140F004003067306F40F00100FA
:10180000306756E00020C4F247200021C0F8801E57
:10181000FFF7F4FC054600BF706F80077FF558AFF7
:10182000FFF7ECFC401B0228F6D9032002B0BDE80C
:10183000F08100BF0027C4F2472700203866FFF779
:10184000DDFC022D05460DD13068800140F18A8013
:10185000FFF7D4FC401B02284FF00300F4D902B07C
:10186000BDE8F0813068800173D5FFF7C7FC401BED
:1018700002284FF00300F5D9F1E700BF0021016015
:10188000FFF7BCFC054600BF306880077FF51DAF41
:10189000FFF7B4FC401B02284FF00300F4D9DEE749
:1018A00020F001003067306F002920F0040030671D
:1018B0007AD0FFF7A3FC054641F28837306F8007E6
:1018C00000F18480FFF79AFC401BB842F6D9032050
:1018D00002B0BDE8F08100BF20F480303060306895
:1018E000002920F4802030607AD0FFF787FC05467D
:1018F000306880033FF5CAAEFFF780FC401B6428C8
:10190000F6D9032002B0BDE8F08100BF7068E1693C
:1019100000F480028A4221D1216A00F03F028A420B
:101920001CD147F6C071626A0140B1EB821F15D12C
:10193000A16A4FF6FF73C903994300F44032A1F541
:1019400080318A420AD1E16A00F07060B0EB016F29
:1019500004D1002002B0BDE8F08100BF012002B038
:10196000BDE8F08104F11C052FCD084340EA821048
:10197000D9034FF6FF729143A1F5803140EA05602B
:101980000843706001203866FFF738FC044600BF4A
:1019900030688001DDD4FFF731FC001B02284FF0D6
:1019A0000300F5D95BE700BFFFF728FC054641F2CD
:1019B000883700BF306F800708D5FFF71FFC401B3A
:1019C000B8424FF00300F5D949E700BFB8F1000F66
:1019D0003FF581AE306C20F0805030647BE600BF74
:1019E000FFF70CFC054600BF306880037FF54EAE64
:1019F000FFF704FC401B64284FF00300F4D92EE7E6
:101A000070B528B1416A29B100210161142106E0B5
:101A1000012070BD4168B1F5827F02D01C210022F7
:101A200042500026866290F8511029B980F8506023
:101A3000054600F03DF82846022180F8511090E854
:101A40002E0002F482720C6803F4044324F0400474
:101A50000C601A4405F4006305691A4405F002039A
:101A600045691A4405F001038569C4691A4405F4FF
:101A700000731A4404F03803046A1A4404F0800323
:101A8000846A1A4304F400531A430A60436A042226
:101A900002EA154203F010031A444A60CA6922F4AC
:101AA0000062CA610121466580F85110304670BD60
:101AB00080B586B0006843F60002C4F2000200213F
:101AC0009042CDE90411CDE9021101914CD043F6C9
:101AD0000041C4F20001884224D043F20001C4F264
:101AE000010188426BD1002043F630010090C4F21E
:101AF00002014A6942F480524A614A6902F4805202
:101B00000092009A00900868E02240F0010008600E
:101B10000868052100F00100009000980020C4F240
:101B2000020041E0002043F630010090C4F20201BF
:101B30000A6942F400420A610A6902F40042009212
:101B4000009A009008684FF4E05240F004000860EA
:101B50000868062100F00400009000980020C4F2FC
:101B6000020000F500601FE043F630000091C4F26F
:101B70000200026942F480420261026902F480427A
:101B80000092009A009101684FF4604241F0020116
:101B900001600068052100F002000090009800201C
:101BA000C4F2020000F5806001920222029200223B
:101BB00003920322CDE9042101A9FFF73BFA06B005
:101BC00080BD00002DE9F04383B01E4615460F4648
:101BD0000446FFF713FB94F851108146012909D1FF
:101BE000002F4FF0010018BF002D0FD103B0BDE84A
:101BF000F08300BF6068B0F5827F0DD104294FF0FB
:101C00000200F3D1A1680029EAD0EFE7002EEDD061
:101C100094F85000012803D1022003B0BDE8F083FE
:101C2000012084F8500094F85100002104281CBFC2
:101C3000052084F851006165A563E687A6872763C0
:101C4000E6862068A686216461640168490603D49B
:101C5000016841F0400101606168731EE268B1FAF9
:101C600081F1B3FA83F3DDF8288049095B09B2F505
:101C7000006F41EA030165D131B137F8021BC16041
:101C80002763E08E0138E086012518F1010032D18A
:101C900002E000BFFFF7B2FAE08E18B9E08F00282B
:101CA00000F0B8802068816889070CD5E18E51B1B9
:101CB000012D08D1216B002531F8022BC260216370
:101CC000E18E0139E1868168C907E3D0E18F0029FF
:101CD000E0D0C068A16B012521F8020BA163E08F61
:101CE0000138E087D6E700BFFFF788FAA0EB0900CC
:101CF000404580F0A580E08E18B9E08F002800F004
:101D000089802068816889070CD5E18E51B1012D49
:101D100008D1216B002531F8022BC2602163E18ECE
:101D20000139E1868168C907DED0E18F0029DBD067
:101D3000C068A16B012521F8020BA163E08F013877
:101D4000E087D1E739B139780173206B0130206326
:101D5000E08E0138E086012518F1010032D101E062
:101D6000FFF74CFAE08E10B9E08F002852D02068BF
:101D7000816889070ED5E18E61B1012D0AD1216BF1
:101D8000002509780173216B206801312163E18E00
:101D90000139E1868168C907E2D0E18F0029DFD0EF
:101DA000C068A16B01250870A06B0130A063E08FB3
:101DB0000138E087D4E700BFFFF720FAA0EB090065
:101DC00040453DD2E08E08B9E08F18B320688168A5
:101DD00089070ED5E18E61B1012D0AD1216B002555
:101DE00009780173216B206801312163E18E01398B
:101DF000E1868168C907DFD0E18F0029DCD0C068A7
:101E0000A16B01250870A06B0130A063E08F013841
:101E1000E087D1E72046022101224346CDF8009019
:101E200002F0D0F9B0B1606D40F020006065202074
:101E30006065002084F85000012003B0BDE8F08305
:101E4000012084F85100002084F85000032003B0E2
:101E5000BDE8F08340F20800C2F20000006849F6D5
:101E60008171C1F25E61A0FB0101480D4FF47A71EE
:101E7000484302906068B0F5827F0BD120468021F4
:101E800000224346CDF8009002F09CF90028CAD108
:101E900021E000BF0298F0B102980138029020685A
:101EA0008168090617D50299A9B1029901390291F1
:101EB000816809060FD5029969B102990139029129
:101EC0008168090607D5029929B102990139029161
:101ED00080680006DED4A06838B900200190206830
:101EE000C1680191806801900198012084F8510037
:101EF000002084F85000606D002818BF012003B056
:101F0000BDE8F083704700007047000090F83C2067
:101F1000012A4FF0020254D010B580F83D2002682B
:101F2000D2F804E0D2F808C00C682EF07003234306
:101F300041F2FF74C4F20004A24253600EDC40F28E
:101F4000FF73C4F200039A4216DCB2F1804F2BD02B
:101F500040F20043C4F2000324E000BF40F2FF332C
:101F6000C4F201039A4213DC41F60003C4F20003F9
:101F70009A4219D0002313E040F60003C4F2000394
:101F80009A4211D040F60043C4F200030AE000BFB9
:101F900044F20003C4F201039A4205D040F2004328
:101FA000C4F201039A4204D149682CF0800319431A
:101FB00091600121002280F83D1080F83C20BDE8AE
:101FC0001040104670470000002804BF01207047F1
:101FD00010B5044690F83D0028B9002084F83C0074
:101FE000204600F01FF8022084F83D002068211DE3
:101FF00002F016FA012084F8460084F83E0084F8C6
:102000003F0084F8400084F8410084F8420084F8DE
:10201000430084F8440084F8450084F83D00002023
:1020200010BD000000680021C4F20101884218BF01
:10203000704781B00020009043F64400C4F20200D3
:10204000016841F001010160006800F001000090AA
:10205000009801B07047000090F83D1001291CBFA6
:1020600001207047022180F83D10006841F2FF72A4
:10207000C168C4F20002904241F00101C1600DDC70
:1020800040F2FF71C4F20001884215DCB0F1804FCC
:102090002AD040F20041C4F2000123E040F2FF31B7
:1020A000C4F20101884213DC41F60001C4F20001D0
:1020B000884219D0002113E040F60001C4F200016B
:1020C000884211D040F60041C4F200010AE000BF8E
:1020D00044F20001C4F20101884205D040F20041FF
:1020E000C4F20101884206D1816801F00701062986
:1020F00004BF00207047016841F001010160002029
:102100007047000090F83C20012A4FF002026CD08A
:1021100080B580F83D20D0F800C04FF67772DCF82B
:10212000083023EA0202CCF808200B684F2B29DC88
:102130001F2B45DD202B46D0302B44D0402B40F0C8
:10214000AF80D1F804E0C968DCF82030DCF820204A
:1021500022F00102CCF82020DCF8182022F0F00256
:1021600042EA011123F00A0242EA0E02CCF81810EA
:10217000CCF82020DCF8081041F0470121F03001B4
:1021800028E000BF6F2B33DDB3F5005F74D0B3F5EB
:10219000805F21D0702B40F08380D1E901E3C968D2
:1021A000DCF8082043EA0E0322F47F4243EA0121CF
:1021B0001143CCF80810DCF8081041F0770109E071
:1021C0000BB1102B6CD1DCF8081021F07001194311
:1021D00041F00701CCF808100022012180F83D10E1
:1021E000002180F83C10BDE880401046704700BFD9
:1021F000502B21D0602B53D1D1F804E0C968DCF812
:102200002030DCF8202022F01002CCF82020DCF86E
:10221000182022F4704242EA013123F0A00242EA7F
:102220000E12CCF81810CCF82020DCF8081041F081
:10223000670121F01001CDE7D1F804E0C968DCF8AE
:102240002030DCF8202022F00102CCF82020DCF83D
:10225000182022F0F00242EA011123F00A0242EAB9
:102260000E02CCF81810CCF82020DCF8081041F051
:10227000570121F02001ADE7D1E901E3C968DCF89D
:10228000082043EA0E0322F47F4243EA012111436E
:10229000CCF80810DCF8081041F480419AE700BF40
:1022A00001229AE77047000070B504460068C568CF
:1022B0000669B10716D515F0020113D06FF00201BF
:1022C0000161012121778069800703D02046FFF753
:1022D000E9FF05E0204600F08FF8204600F08EF878
:1022E00000202077700719D515F0040016D020685B
:1022F0006FF00401016102212177806910F4407FB1
:1023000004D02046FFF7CEFF06E000BF204600F0D5
:1023100073F8204600F072F800202077300717D5B8
:1023200015F0080014D020686FF008010161042145
:102330002177C069800703D02046FFF7B3FF05E08F
:10234000204600F059F8204600F058F80020207789
:10235000F00619D515F0100016D020686FF01001A6
:10236000016108212177C06910F4407F04D0204624
:10237000FFF798FF06E000BF204600F03DF820463A
:1023800000F03CF800202077F00718BF15F001009E
:1023900002D1300609D412E020686FF0010101611A
:1023A000204600F02DF8300609D515F0800006D043
:1023B00020686FF0800101612046FFF7A3FD7006E1
:1023C00009D515F0400006D020686FF0400101618A
:1023D000204600F01FF8B00658BF70BD15F0200071
:1023E00008D021686FF0200220460A61BDE87040E5
:1023F000FFF78ABD70BD0000704700007047000005
:10240000006842F20001C4F20001884218BF704720
:10241000FEF7FABE704700007047000010B5044692
:102420000068416994F84120212A56D111F08001B9
:1024300053D000BF206850E8050F216820F08000CD
:1024400041E80502DAB1206850E8050F216820F064
:10245000800041E8050292B1206850E8050F21682C
:1024600020F0800041E805024AB1206850E8050FDD
:10247000216820F0800041E80502002ADAD1A06B33
:10248000002818BFFEF782FB206850E8030F216880
:1024900020F0C00041E80302DAB1206850E8030FE1
:1024A000216820F0C00041E8030292B1206850E8A2
:1024B000030F216820F0C00041E803024AB1206800
:1024C00050E8030F216820F0C00041E80302002A11
:1024D000DAD1202084F841002068406994F8421045
:1024E000222940F0A78010F0400000F0A38000BF38
:1024F000206850E8050F216820F0400041E80502FF
:10250000DAB1206850E8050F216820F0400041E86A
:10251000050292B1206850E8050F216820F04000C4
:1025200041E805024AB1206850E8050F216820F013
:10253000400041E80502002ADAD1E06B002818BF0C
:10254000FEF724FB206850E8030F216820F4907008
:1025500041E80302BAB3206850E8030F216820F471
:10256000907041E8030272B3206850E8030F2168BD
:1025700020F4907041E803022AB3206850E8030F6A
:10258000216820F4907041E80302002ADAD11AE0B1
:10259000206850E8050F216820F0010041E805029D
:1025A000DAB1206850E8050F216820F0010041E809
:1025B000050292B1206850E8050F216820F0010063
:1025C00041E805024AB1206850E8050F216820F073
:1025D000010041E80502002ADAD1206B012824D14C
:1025E000206850E8030F216820F0100041E8030242
:1025F000DAB1206850E8030F216820F0100041E8AC
:10260000030292B1206850E8030F216820F0100007
:1026100041E803024AB1206850E8030F216820F026
:10262000100041E80302002ADAD1202084F8420099
:1026300000202063002010BD70470000B0B582B0BC
:1026400001680A68CC684B6902F02F05202D04F060
:10265000200505D125B102B0BDE8B04002F0FEB8BA
:102660005FEA027C1EBF03F0010E04F4907313EBCB
:102670000E0341D1036BD50618D5012B16D114F0EA
:10268000100313D0002201920A6801924A68019255
:10269000019A496949064BD4818DC28DC38D002BA7
:1026A00018BF914240F0068202B0B0BD13062DD58E
:1026B00014F080032AD090F84120212AF4D18268B6
:1026C000B2F5805F03D10269002A00F07982026AC4
:1026D000531C036212784A60C28C013A1304C2840C
:1026E000E2D1C86820F08000C860C86840F04000AF
:1026F000C86002B0B0BD00BFD30718BF14F4807328
:1027000040F0E280530700F1E580EAE05206CBD5C5
:1027100014F04002C8D0CA6822F04002CA602021EA
:1027200080F8411002B0BDE8B04000F063BD00BFCA
:10273000C26B11684B68858D99B2002900F0B48096
:10274000A94280F0B180C385D169B1F5807F00F0E6
:10275000A080016851E8031F026821F4807142E8FB
:102760000313DBB1016851E8031F026821F4807193
:1027700042E8031393B1016851E8031F026821F492
:10278000807142E803134BB1016851E8031F0268EE
:1027900021F4807142E80313002BDAD1016851E87B
:1027A000051F026821F0010142E80513BBB301686F
:1027B00051E8051F026821F0010142E8051373B3D7
:1027C000016851E8051F026821F0010142E8051384
:1027D0002BB3016851E8051F026821F0010142E8AE
:1027E0000513002BDAD11AE0016851E8051F0268D1
:1027F00021F0400142E80513DBB1016851E8051FF3
:10280000026821F0400142E8051393B1016851E8E4
:10281000051F026821F0400142E805134BB1016831
:1028200051E8051F026821F0400142E80513002B22
:10283000DAD1202180F8421000210163016851E8BB
:10284000031F026821F0100142E80313DBB10168A5
:1028500051E8031F026821F0100142E8031393B10D
:10286000016851E8031F026821F0100142E80313D8
:102870004BB1016851E8031F026821F0100142E8E2
:102880000313002BDAD1C16B04460846FEF77EF92C
:10289000204602214163818DC28D891A89B202B01E
:1028A000BDE8B040FFF7B8BD8D427FF4FDAED26900
:1028B000B2F5807F7FF4F8AE0222426302B0BDE839
:1028C000B040FFF7A9BD00BF436C43F00103436470
:1028D000530706D5BEF1000F03D0436C43F002034B
:1028E0004364930706D5BEF1000F03D0436C43F059
:1028F00004034364BCF1000F06D55EEA050303D070
:10290000436C43F008034364436C002B3FF4CCAEAC
:10291000920605D525B1044601F0A0FF21682046A6
:102920004969426C01F0400102F00802891800F088
:10293000B98000BF016851E8031F026821F490715B
:1029400042E80313BBB3016851E8031F026821F496
:10295000907142E8031373B3016851E8031F0268E2
:1029600021F4907142E803132BB3016851E8031F6F
:10297000026821F4907142E80313002BDAD11AE0C7
:10298000016851E8051F026821F0010142E80513C2
:10299000DBB1016851E8051F026821F0010142E83E
:1029A000051393B1016851E8051F026821F0010188
:1029B00042E805134BB1016851E8051F026821F098
:1029C000010142E80513002BDAD1016B012924D162
:1029D000016851E8031F026821F0100142E8031367
:1029E000DBB1016851E8031F026821F0100142E8E1
:1029F000031393B1016851E8031F026821F010012D
:102A000042E803134BB1016851E8031F026821F04B
:102A1000100142E80313002BDAD1202180F8421084
:102A20000021016301684969490640F1C3800168DA
:102A300051E8051F026821F0400142E80513DBB1AF
:102A4000016851E8051F026821F0400142E80513C2
:102A500093B1016851E8051F026821F0400142E886
:102A600005134BB1016851E8051F026821F04001D0
:102A700042E80513002BDAD1C16B002900F09A80DF
:102A800044F25D52C0F60002044608460A65FEF7AD
:102A9000C5F800283FF408AEE06B016D02B0BDE858
:102AA000B04008470446FFF7C7FD0020606402B04D
:102AB000B0BD00BF891A00BF026852E8032F036847
:102AC00022F4907243E80325BDB3026852E8032F55
:102AD000036822F4907243E8032575B3026852E854
:102AE000032F036822F4907243E803252DB3026894
:102AF00052E8032F036822F4907243E80325002D67
:102B0000DAD11AE0026852E8052F036822F00102C8
:102B100043E80525DDB1026852E8052F036822F07D
:102B2000010243E8052595B1026852E8052F0368C4
:102B300022F0010243E805254DB1026852E8052F55
:102B4000036822F0010243E80525002DDAD1202296
:102B500080F8422000220263026852E8032F0368D3
:102B600022F0100243E80325DDB1026852E8032F8A
:102B7000036822F0100243E8032595B1026852E889
:102B8000032F036822F0100243E803254DB10268C9
:102B900052E8032F036822F0100243E80325002DBA
:102BA000DAD1022289B2426302B0BDE8B040FFF739
:102BB00033BC00BF02B0BDE8B040FFF73DBD00BF71
:102BC000026A32F8023B6FF35F234B60026283E5D7
:102BD000002804BF0120704710B5044690F841005A
:102BE00028B9002084F84000204600F021F8242075
:102BF00084F841002068C16821F40051C16020467A
:102C000001F0ACFE2068016921F490410161416945
:102C100021F02A014161C16841F40051C1600020E6
:102C20002021606484F8411084F84210606310BD74
:102C300070B586B00446006844F6FF31C4F2000166
:102C400088424FF000010591CDE90311CDE9011152
:102C50005CDC44F20041C4F20001884200F0948040
:102C600044F60001C4F20001884240F0E2800026F0
:102C700043F630000096C4F20200016941F480215D
:102C80000161016901F480210091009900960168B9
:102C900041F008010160006801A900F008000090FF
:102CA00000984FF4407001900220CDE90206032005
:102CB0000490072005900020C4F2020000F5406057
:102CC000FEF7B8F946F24000C4F2020040F27C453B
:102CD0001830C2F200054FF00061402285E847003D
:102CE0004FF480304FF48063C5E908062846C5E9F3
:102CF0000436C5E90666FEF785F8002818BFFDF71B
:102D000013FBA563AC6306B070BD00BF41F20001C8
:102D1000C4F20101884200F08F8044F60041C4F201
:102D20000001884240F08580002643F6300000967E
:102D3000C4F20200016941F400210161016901F45A
:102D40000021009100990096016841F001010160A5
:102D50000068022100F0010000900098032001901B
:102D60000490082005900020CDE90216C4F202006C
:102D700001A9FEF75FF940F25C3546F24000C2F26D
:102D80000005C4F202008AE0002643F630000096F7
:102D9000C4F20200016941F400310161016901F4EA
:102DA0000031009100990096016841F0080101602E
:102DB000006801A900F008000090009860200190D0
:102DC0000220CDE902060320049007200590002090
:102DD000C4F2020000F54060FEF72CF946F2400014
:102DE000C4F2020040F21C454830C2F200054FF028
:102DF000006185E843004FF480304FF480624FF467
:102E00008073C5E908062846C5E90362C5E9056679
:102E1000EB61FDF7F7FF002818BFFDF785FA2620C4
:102E200005210022E563AC63FEF7A6FA2620FEF733
:102E300091FA06B070BD00BF002643F63000009640
:102E4000C4F20200416941F010014161416901F0A1
:102E50001001009100990096016841F001010160A4
:102E6000006801A900F00100009000984FF4C060D4
:102E700001900220CDE9020603200490072005906E
:102E80000020C4F20200FEF7D5F846F24000C4F27A
:102E9000020040F2BC3500F58060C2F200052860F7
:102EA0004FF480304FF000614FF480624FF4807334
:102EB000C5E9080628466960AE60EE602A616E6169
:102EC000AE61EB61FDF79EFF002818BFFDF72CFAFD
:102ED000E563AC6306B070BD70B582B090F8425047
:102EE000202D0BD113460A460146002A4FF001005F
:102EF00018BF002B06D102B070BD00BF022002B087
:102F000070BD00BF002622200E638A628B854E644E
:102F100081F842000C680D46C86B44F2E56C44F63B
:102F20004501C0F6000CC0F60001C0E90FC144F233
:102F30006951C0F60001C0E91316211DFEF714F80F
:102F400040B110206864202085F84200012002B0C2
:102F500070BD00BF0196286829460268019240684A
:102F600001900198286928B3086850E8030F0A689F
:102F700040F4807042E80303E3B1086850E8030FAF
:102F80000A6840F4807042E803039BB1086850E887
:102F9000030F0A6840F4807042E8030353B10868E5
:102FA00050E8030F0A6840F4807042E80303002BE6
:102FB000DAD100BF086850E8050F0A6840F0010048
:102FC00042E80503DBB3086850E8050F0A6840F0E3
:102FD000010042E8050393B3086850E8050F0A684A
:102FE00040F0010042E805034BB3086850E8050FC4
:102FF0000A6840F0010042E80503002BDAD11EE028
:10300000086850E8050F0A6840F0400042E80503F0
:10301000FBB1086850E8050F0A6840F0400042E83C
:103020000503B3B1086850E8050F0A6840F0400096
:1030300042E80503002B4FF000003FF45CAF086846
:1030400050E8050F0A6840F0400042E80503002BF5
:10305000D6D1002002B070BD70470000704700005C
:103060002DE9F04381B0044690F84100202809D1B1
:1030700000294FF0010018BF002A07D101B0BDE8B8
:10308000F08300BF022001B0BDE8F083002060643F
:1030900021201D460E4684F841001746FEF7AEF883
:1030A000A784E784A1688146B1F5805F02D12069D9
:1030B00000285DD037460020E28C2168002A5DD0D0
:1030C0006A1C24D0002D4AD0804600BF0868000644
:1030D00008D4FEF793F8A0EB0900A8427AD821683B
:1030E000C868F3E717B117F8010B04E038F8020BD2
:1030F00000276FF35F204860E08C0138E084E08CAB
:103100000028E3D13AE000BF0A68120609D40A6831
:10311000120606D40A6812065CBF0A685FEA0262F9
:10312000F2D51FB117F8012B05E000BF30F8022BD4
:1031300000276FF35F224A60E28C013AE284E28C5E
:10314000002AE4D11AE000BF30F8022B00276FF309
:103150005F224A60E28C013AE284E28C72B10A6832
:10316000120635D5002FEFD017F8012BF1E700BF7D
:1031700000273046E28C2168002AA1D10868400669
:103180001ED42DB3681C14D1086840062AD40868E0
:10319000400627D40868400624D4086840064FF04B
:1031A0000000F1D50DE000BF2068C168006840064E
:1031B00018D4FEF723F8A0EB0900A842F4D909E0DF
:1031C0000020202184F8411001B0BDE8F08300BF49
:1031D000FEF714F80320202184F8411001B0BDE867
:1031E000F08300BF0020202184F8411001B0BDE829
:1031F000F083000070470000FEE700002DE9F04F6B
:1032000087B004464068218900224FF0000BFDF78B
:10321000EFFFC02120688DF808100A2502A906AA30
:10322000012300954FF00108FEF7CCFC606821896E
:103230000122FDF7DDFF0A20FDF7E8FE02AE204681
:10324000302132460E23ADF814B0CDF810B0CDE9E0
:1032500002BB00F0B7FC2046402132460E2300F0AE
:10326000B1FC2046502132460E2300F0ABFC6068D2
:1032700021890022FDF7BCFF2068022606A90DF176
:10328000170201238DF818600095FEF79BFC20685B
:103290004FF0600A06A90DF1170201238DF818A05E
:1032A0000095FEF78FFC206806A90DF11702012397
:1032B0008DF818B00095FEF785FC60682189012221
:1032C000FDF796FF606821890022FDF791FF2068D5
:1032D00006A90DF1170201238DF818600095FEF77D
:1032E00071FC20684FF0700906A90DF11702012347
:1032F0008DF818900095FEF765FC206806A90DF181
:10330000170201238DF818B00095FEF75BFC60688A
:1033100021890122FDF76CFF606821890022FDF7F9
:1033200067FF206806A90DF1170201238DF81860C8
:103330000095FEF747FC2B2120688DF8181006A990
:103340000DF1170201230095FEF73CFCA321206834
:103350008DF8181006A90DF1170201230095FEF74C
:1033600031FC606821890122FDF742FF60682189F4
:103370000022FDF73DFF2068052606A90DF1170282
:1033800001238DF818600095FEF71CFC206806A943
:103390000DF1170201238DF818A00095FEF712FC1D
:1033A0002068672706A90DF1170201238DF8187010
:1033B0000095FEF707FC042120688DF8181006A977
:1033C0000DF1170201230095FEF7FCFB60682189CF
:1033D0000122FDF70DFF606821890022FDF708FF3B
:1033E000206806A90DF1170201238DF818600095D9
:1033F000FEF7E8FB206806A90DF1170201238DF8FE
:1034000018900095FEF7DEFB206806A90DF1170263
:1034100001238DF818700095FEF7D4FB206806A9EB
:103420000DF1170201238DF818800095FEF7CAFBF5
:10343000606821890122FDF7DBFE2046802100F033
:103440003BFB18B1404607B0BDE8F08F06AA204606
:1034500000210423CDF818B000F0B4FB20468021F1
:1034600000F02AFB30B14FF00108404607B0BDE83C
:10347000F08F00BF4FF40060069006AA204604219A
:10348000042300F09FFB2046802100F015FB28B1AB
:103490004FF00108404607B0BDE8F08F002506AAAE
:1034A000204608210423069500F08CFB204680214D
:1034B00000F002FB30B14FF00108404607B0BDE814
:1034C000F08F00BF06AA204610210423069500F0C5
:1034D00079FB2046802100F0EFFA28B14FF0010877
:1034E000404607B0BDE8F08F002506AA204614210B
:1034F0000423069500F066FB2046802100F0DCFAEC
:1035000030B14FF00108404607B0BDE8F08F00BF72
:1035100006AA204618210423069500F053FB2046F6
:10352000802100F0C9FA28B14FF00108404607B0E9
:10353000BDE8F08F4FF4006506AA20462021042341
:10354000069500F03FFB2046802100F0B5FA28B137
:103550004FF00108404607B0BDE8F08F06AA2046AC
:1035600024210423069500F02DFB4FF0000840466F
:1035700007B0BDE8F08F00002DE9F04383B0894625
:103580000979082904D90426304603B0BDE8F08340
:1035900005464068298900220026FDF729FE286893
:1035A0004FF003080A270DF107010DF10602012370
:1035B0008DF807800097FEF705FB302128688DF80D
:1035C00009100DF1090102AA01230097FEF7FAFA8A
:1035D00028680DF10B010DF10A0201238DF80B6033
:1035E0000097FEF7EFFA686829899DF80A400122E2
:1035F000FDF7FEFD200765D5686829890022FDF7E3
:10360000F7FD28680DF107010DF1060201238DF881
:1036100007800097FEF7D6FA402128688DF8091038
:103620000DF1090102AA01230097FEF7CBFA2868E1
:103630000DF10B010DF10A0201238DF80B600097CB
:10364000FEF7C0FA686829899DF80A400122FDF753
:10365000CFFD20074FF0010634D568682989002284
:103660000027FDF7C5FD032128688DF807100A26FD
:103670000DF107010DF1060201230096FEF7A2FAF3
:10368000502128688DF809100DF1090102AA0123C3
:103690000096FEF797FA28680DF10B010DF10A026A
:1036A00001238DF80B700096FEF78CFA6868298963
:1036B0009DF80A400122FDF79BFD20074FF002060E
:1036C0003FF562AF284631464A4600F005F8064607
:1036D000304603B0BDE8F0832DE9F04F87B092F893
:1036E0000490B9F1080F03D9042007B0BDE8F08FAA
:1036F000824610686FF060434FF0400C0126B0F135
:10370000FF3FC8BF40F2FF7303EA000704DDFF0874
:1037100043010025002409E0E025C7F3014305EA41
:1037200057352B443C0A08337F0D05468E404CEA42
:103730004108402101EA106040EA0900B9F1000F98
:103740008DF80D708DF80E308DF810508DF80F40FB
:103750008DF8110006D00DF10D00511D05304A46BF
:10376000FCF75FFDDAF80400BAF8081066F07F0293
:1037700002920022FDF73CFDDAF800008DF81B8074
:103780000DF11B080DF11A074FF00A0B41463A469E
:103790000123CDF800B0FEF715FA09F10500C0B21B
:1037A00044424FF0FF350DF10D0600BF701941780E
:1037B000DAF800008DF81B1041463A460123CDF897
:1037C00000B0FEF7FFF9013560190130EED1DAF8EB
:1037D0000400BAF808100122FDF70AFDDAF8040027
:1037E000BAF8081000220026FDF702FDDAF8000002
:1037F000029C0A250DF11B010DF11A0201238DF81F
:103800001B400095FEF7DEF9DAF80400BAF808105C
:103810000122FDF7EDFCDAF80400BAF808100022E6
:10382000FDF7E6FC0321DAF800008DF81B100DF11E
:103830001B010DF11A0201230095FEF7C3F9DAF816
:1038400000000DF11B010DF11A0201238DF81B4040
:103850000095FEF7B7F9DAF800000DF11B010DF144
:103860001A0201238DF81B600095FEF7ABF9DAF818
:103870000400BAF808109DF81A400122FDF7B8FCC0
:1038800014F0700018BF0120800007B0BDE8F08F71
:103890002DE9F04383B00D4680211646044600F022
:1038A0000BF918B1012003B0BDE8F08306B3012E77
:1038B00010D0022EF6D1102DF4D24FF6FF40E84082
:1038C000C007EFD070A074A177A2284429442A44ED
:1038D00021E000BF102DE5D24FF6F750E840C007B9
:1038E000E0D05DA060A164A2284429442A4412E0EB
:1038F0002A1FD0B20C28D5D240F6DF7121FA00F091
:10390000C007CFD04BA04EA150A350FA82F051FA7D
:1039100082F153FA82F20D7807786068218992F873
:1039200000800022FDF764FC20684FF002090A269F
:103930000DF10B010DF10A0201238DF80B90009699
:10394000FEF740F92A2120688DF80B100DF10B01CC
:103950000DF10A0201230096FEF734F920680DF1FB
:103960000B010DF10A0201238DF80B700096FEF792
:1039700029F9606821890122FDF73AFC60682189F4
:103980000022FDF735FC20680DF10B010DF10A0254
:1039900001238DF80B900096FEF714F92921206879
:1039A0008DF80B100DF10B010DF10A0201230096A9
:1039B000FEF708F920680DF10B010DF10A02012351
:1039C0008DF80B500096FEF7FDF860682189012202
:1039D000FDF70EFC606821890022FDF709FC2068D4
:1039E0000DF10B010DF10A0201238DF80B900096E9
:1039F000FEF7E8F8282120688DF80B100DF10B0177
:103A00000DF10A0201230096FEF7DCF820680DF1A3
:103A10000B010DF10A0201238DF80B800096FEF7D1
:103A2000D1F8606821890122FDF7E2FB002003B094
:103A3000BDE8F0830B090904040B040301410000F5
:103A4000FFFFFAFFFEFFFAFAFFFBFAD987878787A5
:103A500087878787878687823F1F0F3F4E07070329
:103A6000033F030301410000FFFFFFFFF1FFFAFFE7
:103A7000BEFFFAF0FAF1F0D08787878785878787BE
:103A800007878786878586821F0F070747030301FD
:103A90001F1F010100000000BFBFBFA4E2BFB4BFF1
:103AA000BFBFB4B1B4B1908087878784858786878C
:103AB00087878685868582802DE9F04F85B00C4604
:103AC0000546FDF79BFB00F10A0B0A260DF11308D2
:103AD0000DF112094FF0000AFDF790FB58456BD22B
:103AE000686829890022FDF783FB286805218DF885
:103AF00007100DF107010DF1060201230096FEF7F4
:103B000061F828680F218DF809100DF1090102AA4A
:103B100001230096FEF756F82868E0218DF80B1077
:103B20000DF10B010DF10A0201230096FEF74AF890
:103B300028680DF10D0103AA01238DF80D400096B0
:103B4000FEF740F8686829890122FDF751FB686893
:103B500029890022FDF74CFB286803218DF80F10FE
:103B60000DF10F010DF10E0201230096FEF72AF868
:103B700028680E218DF811100DF1110104AA0123FE
:103B80000096FEF71FF8286841464A4601238DF843
:103B900013A00096FEF716F8686829899DF8127040
:103BA0000122FDF725FB07F0E000A04294D150462A
:103BB00005B0BDE8F08F00BF4FF0010A504605B0D8
:103BC000BDE8F08F2DE9F04383B0054616462A89FB
:103BD00040680F46114600221C46FDF709FB0221F2
:103BE00028688DF807104FF00A080DF107010DF154
:103BF00006020123CDF80080FDF7E4FF28680DF1EF
:103C0000090102AA01238DF80970CDF80080FDF7A3
:103C1000D9FF9CB1013E0DF10B090DF10A0700BF60
:103C200016F8011F28688DF80B1049463A46012303
:103C3000CDF80080FDF7C6FF013CF1D16868298905
:103C40000122FDF7D5FA03B0BDE8F08380B540F25C
:103C5000E02046F20041C2F20000C4F2000103225B
:103C6000002380E80E0000F10C014FF4002C4FF40B
:103C7000401E81E8085083618383FCF7FDFD002826
:103C800008BF80BDBDE88040FCF74EBB80B540F268
:103C9000083046F60001C2F20000C4F2000103221F
:103CA000002380E80E0000F10C014FF4002C4FF4CB
:103CB000401E81E8085083618383FCF7DDFD002806
:103CC00008BF80BDBDE88040FCF72EBB80B582B048
:103CD000002043F630010190C4F202010A6842F468
:103CE00000120A600A6802F400120192019A009020
:103CF0000868002240F4800008600868052100F48C
:103D00008000009000980D20FDF736FB0D20FDF798
:103D100021FB0E2005210022FDF72EFB0E20FDF7D2
:103D200019FB102005210022FDF726FB1020FDF7CE
:103D300011FB3A2005210022FDF71EFB3A2002B0BC
:103D4000BDE88040FDF706BB80B588B00B4802AFE8
:103D500001900AA000F1040E9EE80E50806987E8E9
:103D60000E50079001A8002101F0F0FA40F27C11FA
:103D7000C2F20001086008B080BD00BF586C0008A6
:103D80001543000800000000000000008000000053
:103D900000000000000000002DE9F04786B000247C
:103DA00043F630000594CDE90344CDE90144009485
:103DB000C4F20200016840F2004841F010010160C5
:103DC0000168C4F2020801F010010091009900940A
:103DD000016808F5406541F080010160016800223A
:103DE00001F080010091009900940168FF2641F0E4
:103DF00001010160016801F0010100910099009446
:103E0000016841F002010160016801F002010091C6
:103E100000990094016841F008010160016801F017
:103E20000801009100990094016841F004010160CB
:103E30000068FF2100F00400009000982846FDF77C
:103E4000D7F9A8F58067384648F21001002248F2F9
:103E5000100AFDF7CDF940464FF4805100224FF48F
:103E60008059FDF7C5F90196112001AECDE9020494
:103E7000284631460494FDF7DDF8CDF804A04FF054
:103E8000010A38463146CDE902A40494FDF7D2F880
:103E90000420CDE901040220039040463146FDF79D
:103EA000C9F84FF42850CDE901042846314603945F
:103EB000FDF7C0F840463146CDE9019ACDE903440B
:103EC000FDF7B8F806B0BDE8F087000080B540F215
:103ED000DC4043F20001C2F20000C4F201014FF4E1
:103EE0008272002380E80E0000F114014FF4007C80
:103EF0004FF0100E81E808500A21C0E90333C0E9F1
:103F00000833C0E90A31FDF77BFD002808BF80BDFA
:103F1000BDE88040FCF708BA80B540F2345043F663
:103F20000001C2F20000C4F200014FF482720023CB
:103F300080E80E0000F114014FF4007C4FF0080EF1
:103F400081E808500A21C0E90333C0E90833C0E919
:103F50000A31FDF755FD002808BF80BDBDE880404F
:103F6000FCF7E2B980B540F28C5043F60041C2F252
:103F70000000C4F200014FF48272002380E80E00BA
:103F800000F114014FF4007C4FF0080E81E8085056
:103F90000A21C0E90333C0E90833C0E90A31FDF75B
:103FA0002FFD002808BF80BDBDE88040FCF7BCB9EC
:103FB00080B586B040F2E45000220021C2F2000039
:103FC000C4F20102A7234FF6FF7C0591CDE903114E
:103FD000CDE90011C0E90023C0E9021CC0E90411C9
:103FE0008161FDF7F1FF002818BFFCF79DF94FF440
:103FF0008050029040F2E450C2F2000002A9FEF7A5
:1040000081F8002818BFFCF78FF940F2E450C2F2A3
:1040100000006946FDF77AFF002818BFFCF784F915
:1040200006B080BDB0B540F24C7044F60041C2F21B
:104030000000C4F2000148F2A0620C240025C0F286
:1040400001024FF480534FF4005C4FF4806E80E81F
:104050000E50C0E90545C561FEF7BAFD002808BF4E
:10406000B0BDBDE8B040FCF75FB9000080B540F2DC
:10407000746041F20001C2F20000C4F201010023A9
:104080004FF00C0C4FF4E13280E80E00C0E903332E
:10409000C0E905C3C361FEF79BFD002808BF80BDD2
:1040A000BDE88040FCF740B980B540F2BC6044F206
:1040B0000041C2F20000C4F2000100234FF00C0CDA
:1040C0004FF4E13280E80E00C0E90333C0E905C3D4
:1040D000C361FEF77DFD002808BF80BDBDE88040BC
:1040E000FCF722B980B540F2047044F60001C2F238
:1040F0000000C4F2000100234FF00C0C4FF4E13239
:1041000080E80E00C0E90333C0E905C3C361FEF7D0
:104110005FFD002808BF80BDBDE88040FCF704B902
:1041200030EE600A32EE613A20EE030A31EE601A98
:1041300080EE010A31EE800AB4EE420AF1EE10FA86
:10414000C8BFB0EE420AB4EE610AF1EE10FAB8BF91
:10415000B0EE610A70470000FEE70000FEE70000D5
:10416000EFF30980BFF36F8F154B1A681EF0100F25
:1041700008BF20ED108A20E9F04F10602DE90900FA
:104180004FF0500080F31188BFF34F8FBFF36F8F54
:1041900002F0DCFA4FF0000080F31188BDE809005E
:1041A00019680868B0E8F04F1EF0100F08BFB0ECB7
:1041B000108A80F30988BFF36F8F704700BF00BF7C
:1041C0003C0000202DE9F04381B0089C984615463C
:1041D0000E468146FDF712F8201A00EB0804FDF7A1
:1041E0000DF840F20801C2F200010968C1F3CB31B9
:1041F00061430091D9F800108A683240921BB2FAEC
:1042000082F25209954203D1002001B0BDE8F0834B
:10421000074618F101000ED130E000BF00980138C8
:104220000090D9F8000080683040801BB0FA80F020
:1042300040098542E8D0FCF7E1FFC01BA04227D22D
:1042400000980028EAD10024EBE700BF88683040DE
:10425000801BB0FA80F040098542D5D08868304094
:10426000801BB0FA80F040098542CDD0886830408C
:10427000801BB0FA80F040098542C5D08868304084
:10428000801BB0FA80F040098542DFD1BCE700BF57
:10429000D9E900014268B1F5827F22F0E002426074
:1042A0000BD1D9F80810B1F5004F02D0B1F5806FED
:1042B00003D1016821F040010160D9F82810B1F55F
:1042C000005F07D1016821F400510160016841F4E9
:1042D00000510160012089F85100002089F8500048
:1042E000032001B0BDE8F0830000000000000000E2
:1042F000074B19680868B0E8F04F80F30988BFF3EE
:104300006F8F4FF0000080F31188704700BF00BF2F
:104310003C000020012001F00BF8002002F024F9FD
:10432000F8E7000080B54FF0500080F31188BFF32C
:104330006F8FBFF34F8F02F077FB30B14EF6045012
:10434000CEF200004FF080510160002080F3118810
:1043500080BD000070B592B006AC20463021FBF75E
:1043600079FF002543F640000595CDE90355CDE9D9
:1043700001550095C4F202000168022641F0805107
:104380000160006800F080500090009847F2000043
:104390000095C4F20000016841F4804101600068AA
:1043A00000F4804000900098012006904FF4803087
:1043B00007904FF480000D9006200E90A820CDE9C4
:1043C0000F060420119020460C96FDF743F918B112
:1043D00072B600BFFEE700BF0F20CDE901064FF423
:1043E000A05004904FF48050059001A8052103953A
:1043F000FCF7FEFF10B172B6FEE700BF12B070BD51
:104400004EF68850CEF20000016841F47001016060
:104410007047000040F22C60C2F20000FDF744BF7C
:10442000B0B540F6FF3E0568C4F2000E40F2004C05
:104430007045C4F2010C25DCB0F1804F2FD040F262
:104440000043C4F20003984229D040F60003C4F2AE
:104450000003984223D041F6FF73C4F20003984250
:1044600028DC70453ADCB0F1804F5BD040F200436D
:10447000C4F20003984255D040F60003C4F2000392
:104480004EE000BF40F60043C4F20003984206D05D
:10449000604504D00023C4F201039842DBD14B688D
:1044A00025F0700243EA020541F6FF73C4F20003EF
:1044B0009842D6DD43F6FF73C4F2010398421FDC35
:1044C00042F20003C4F2000398422BD00023C4F24E
:1044D0000103984226D0604524D028E040F60043EE
:1044E000C4F2000398421DD041F60003C4F2000359
:1044F000984217D041F60043C4F2000310E000BF19
:1045000044F20003C4F2010398420BD044F60003C6
:10451000C4F20103984205D044F20043C4F20103FF
:10452000984204D1CB6825F4407243EA02050A6838
:104530008C684B69C46240F480648262644504BF45
:1045400009690163026825F0800142F00402194301
:104550000260012242610160B0BD0000806B002159
:10456000C185FEF769B80000806B01684A6990F860
:104570004130212B2DD112F080022AD00021C1849C
:10458000016851E8031F026821F0C00142E80313EB
:10459000DBB1016851E8031F026821F0C00142E865
:1045A000031393B1016851E8031F026821F0C001B1
:1045B00042E803134BB1016851E8031F026821F080
:1045C000C00142E80313002BDAD1202180F841100A
:1045D0000168496990F84220222A40F07D8011F05C
:1045E000400179D00021C185016851E8031F0268AC
:1045F00021F4907142E80313BBB3016851E8031F33
:10460000026821F4907142E8031373B3016851E822
:10461000031F026821F4907142E803132BB3016871
:1046200051E8031F026821F4907142E80313002B44
:10463000DAD11AE0016851E8051F026821F0010192
:1046400042E80513DBB1016851E8051F026821F05B
:10465000010142E8051393B1016851E8051F0268A2
:1046600021F0010142E805134BB1016851E8051F33
:10467000026821F0010142E80513002BDAD1016B39
:10468000012924D1016851E8031F026821F01001BB
:1046900042E80313DBB1016851E8031F026821F00F
:1046A000100142E8031393B1016851E8031F026847
:1046B00021F0100142E803134BB1016851E8031FD8
:1046C000026821F0100142E80313002BDAD1202107
:1046D00080F8421000210163416C41F010014164F7
:1046E000FDF7AABF0168806B0968C90500F19F80CA
:1046F0000021C185016851E8031F026821F480711F
:1047000042E80313E3B1016851E8031F026821F492
:10471000807142E803139BB1016851E8031F0268EE
:1047200021F4807142E8031353B1016851E8031F7B
:10473000026821F4807142E80313002BDAD100BF34
:10474000016851E8051F026821F0010142E80513E4
:10475000BBB3016851E8051F026821F0010142E87E
:10476000051373B3016851E8051F026821F00101C8
:1047700042E805132BB3016851E8051F026821F0D8
:10478000010142E80513002BDAD11AE0016851E873
:10479000051F026821F0400142E80513DBB1016802
:1047A00051E8051F026821F0400142E8051393B16A
:1047B000016851E8051F026821F0400142E8051335
:1047C0004BB1016851E8051F026821F0400142E841
:1047D0000513002BDAD1202180F84210016B01294A
:1047E00025D100BF016851E8031F026821F01001C4
:1047F00042E80313DBB1016851E8031F026821F0AE
:10480000100142E8031393B1016851E8031F0268E5
:1048100021F0100142E803134BB1016851E8031F76
:10482000026821F0100142E80313002BDAD10021C5
:104830004163016B012918BFFEF70EBC818DFDF7A6
:10484000EBBD0000806B01214163016B012918BFA2
:10485000FEF704BC818D4908FDF7DEBD81B090F8FC
:104860004210222921D183680246B3F5805F09D125
:1048700052F8281F52F8183C002B63D003685B687D
:104880000AE000BF52F8281F13B90369002BF5D0C6
:1048900003685B6803F07F030B70116801311160DE
:1048A000C18D01390A04C18502D001B0704700BF33
:1048B0000168CA6822F02002CA60CA6822F48072C5
:1048C000CA604A6922F001024A61202180F8421040
:1048D00000214163026B012A3CD10163016851E868
:1048E000031F026821F0100142E80313DBB10168E5
:1048F00051E8031F026821F0100142E8031393B14D
:10490000016851E8031F026821F0100142E8031317
:104910004BB1016851E8031F026821F0100142E821
:104920000313002BDAD101680A68D20606D50022EB
:1049300000920A680092496800910099818D01B047
:10494000FDF76ABD026852686FF35F2221F8022BFF
:104950008162A5E701B0FEF77FBB0000B0B5044659
:10496000006804F108030ECB0569194325F440558E
:104970002A4302616269E3691143C268194349F23B
:104980000C639A431143C1604169A26921F44071EB
:1049900041F20043114340F48062C4F201039A42A1
:1049A000416103D1FCF70AFE02E000BFFCF7F2FD13
:1049B000E1694FF69C7563681922C0F6FF75B1F581
:1049C000004FA0FB02011FD15A00DB0FFBF7F8FBE1
:1049D00048F21F51C5F2EB11A0FB01235A0905F162
:1049E000805302FB0300322303EBC000A0FB010154
:1049F0004FF4F87000EA111000EB0210C1F34211FD
:104A0000084421688860B0BD9A009B0FFBF7D8FB73
:104A100048F21F51C5F2EB11A0FB01235A0902FB1A
:104A20000500322303EB0010A0FB0101F02000EA97
:104A3000511000EB0210C1F3431108442168886053
:104A4000B0BD000040F2BC60C2F20000FDF7F6BD50
:104A5000FEE7000040F23012C2F200024FF4407153
:104A6000082300F0C7BB00000A2001F02DFDFBE782
:104A700001780139032988BF70472DE9F043DFE849
:104A800001F003551D3900BF40F28013C2F200034C
:104A90000121596003F1240C03F13C0E03F13808A5
:104AA00003F12C0903F1280203F1200403F114059A
:104AB00003F1100603F10C07083350E040F28013B5
:104AC000C2F200030321C3F8B41003F1D40C03F1C4
:104AD000EC0E03F1E80803F1DC0903F1D80203F15D
:104AE000D00403F1C40503F1C00603F1BC07B833D9
:104AF00035E000BF40F28013C2F200030421C3F886
:104B00000C1103F5967C03F5A27E03F5A07803F55E
:104B10009A7903F5987203F5947403F58E7503F58D
:104B20008C7603F58A7703F5887318E040F28013DA
:104B3000C2F200030221D96503F17C0C03F1940E4B
:104B400003F1900803F1840903F1800203F1780472
:104B500003F16C0503F1680603F164076033017823
:104B60009FED2E1A09091960B0F801109FED2C2A4B
:104B700049BA3960C37807791B0143EA17133360D8
:104B80000679477906F00F0647EA06261927794382
:104B900000EE101AC3EB0311B8EE400A890080EE54
:104BA000010A01EE101A06EB8601B8EE411A8900DF
:104BB00081EE021A03EE101AB8EE433A83EE022A8F
:104BC000BAEE093A2E6030EE030ABBEE0E3A84EDDF
:104BD000000A31EE031A82ED001ABAEE041A32EE20
:104BE000011A89ED001A81799FED0E2A01EE101A43
:104BF000B8EE411A88ED001AC07920EE020A01EEE3
:104C0000100ABDEEC00AB8EE411A10EE100A8EED81
:104C1000001AACF80000BDE8F043704700FF7F4782
:104C200000F07F45E12E654270B58AB040F2E02485
:104C300001260020C2F200046D46CDE90606CDE94A
:104C40000000CDE90200CDE904002046294608967F
:104C5000FBF7D8FB2046FBF75DFF20460221FBF760
:104C600067FB40F208340E20C2F200040990059060
:104C7000204629460496FBF7C5FB2046FBF74AFF72
:104C800020461021FBF754FB0AB070BD40F65C01D2
:104C9000C2F2000131F8101040F2A46200209142EB
:104CA00088BF01207047000010B50121044600F0C4
:104CB00033F9052001F008FC2046022100F02CF910
:104CC000052001F001FC2046032100F025F9052014
:104CD00001F0FAFB2046042100F01EF9052001F046
:104CE000F3FB2046052100F017F9052001F0ECFB4D
:104CF0002046062100F010F9052001F0E5FB2046D2
:104D0000072100F009F9052001F0DEFB204608210B
:104D100000F002F90520BDE8104001F0D5BB00000D
:104D200010B50121044600F01FF9052001F0CCFB6D
:104D30002046022100F018F9052001F0C5FB2046AD
:104D4000032100F011F9052001F0BEFB20460421EB
:104D500000F00AF9052001F0B7FB2046052100F01C
:104D600003F9052001F0B0FB2046062100F0FCF815
:104D7000052001F0A9FB2046072100F0F5F80520E9
:104D800001F0A2FB2046082100F0EEF80520BDE866
:104D9000104001F099BB00007047000040F2200570
:104DA00040F2E024C2F20005C2F2000403E000BFBA
:104DB000022001F089FB28780128F9D1204600F073
:104DC00001F8F5E710B52DED0A8B40F22801C2F28B
:104DD000000191ED000A40F22C01C2F2000191EDB8
:104DE000002A40F23001C2F200019FED431A91ED1A
:104DF000003A9FED445A9FED424A20EE010A9FED92
:104E00003F1A23EE053A22EE042A23EE043A20EE5E
:104E1000010A22EE012A23EE011A9FED3B3A9FED93
:104E20003B4A22EE032A20EE044A34EE425A9FED1A
:104E3000386A31EE055AC5EE060A20EE030A30EE56
:104E4000423A30EE020A30EE010A80EE069A34EE63
:104E5000020A9FED30CA30EE010AB0EE08BA31EE18
:104E6000033A80EE06AA0121B0EE4C0AB0EE4C1ACD
:104E7000F0EE4B1AB0EE4C2A83EE068A044600F0A0
:104E80009BF8012001F020FB20460221B0EE4C0AE5
:104E9000F0EE480AB0EE4C1AF0EE4B1AB0EE4C2A87
:104EA00000F08AF8012001F00FFB20460321B0EE4C
:104EB0004C0AF0EE490AB0EE4C1AF0EE4B1AB0EE86
:104EC0004C2A00F079F8012001F0FEFA2046042176
:104ED000B0EE4C0AF0EE4A0AB0EE4C1AF0EE4B1A65
:104EE000B0EE4C2A00F068F80120BDEC0A8BBDE85A
:104EF000104001F0E9BA00BF17B7D1B83333F33F20
:104F000017B7D13848E17ABEF304353FF30435BF13
:104F10000AD7233F0000000080B58AB04FF0FF326F
:104F200003910021CDF807200192FD22CDE9041163
:104F3000069108218DF80B20079103A901AA09AB5E
:104F4000FBF70EFA0AB080BD80B582B04FF0FF3299
:104F5000CDF803200092FD228DF807206A46082331
:104F600000F048F902B080BD80B58AB04FF0FF3242
:104F700003910021CDF807200192FC22CDE9041114
:104F8000069108218DF80B20079103A901AA09AB0E
:104F9000FBF7E6F90AB080BD80B582B04FF0FF3272
:104FA000CDF803200092FC228DF807206A460823E2
:104FB00000F020F902B080BDB0B58AB0B2EE093A77
:104FC0009FED334A30EE030A20EE040AB3EE093AAD
:104FD00080EE030AB3EE0E3A9FED2E4A30EE833A8E
:104FE0009FED2D5A23EE043A83EE053A9FED2B5A9E
:104FF00021EE041A81EE051A21EE845AB1EE046AFC
:1050000085EE065AB2EE046A32EE062A22EE042A31
:10501000B3EE044A82EE042ABDEEC00A10EE102A56
:10502000BDEEC30A10EE103A150ABDEEC10A8DF8A6
:1050300005201A0910EE10CABDEEC50A8DF806202B
:105040001A0110EE10EABDEEC20A42EA1C2210EE6E
:10505000104A8DF807204FEA1E128DF80920220A07
:105060000391002142EA0E12CDE9041106910821B4
:105070008DF80A20079103A901AA09AB8DF8045005
:105080008DF808C08DF80B40FBF76AF90AB0B0BD87
:1050900000FF7F4700F07F45000070420000FA43A8
:1050A00040F20C0541F20004C2F20005C4F2020411
:1050B00029882046FCF794F828880121B0F5807FE4
:1050C00038BF4100C820298001F0FEF9F0E7000058
:1050D000032888BF704740F29471C2F2000101EBCF
:1050E000800080ED000A7047B0B52DED068B40F2D0
:1050F0009475C2F2000595ED001ABBEE049A81EE9C
:10510000091AB0EE408A0521F0EE480A0446B0EED6
:10511000410A00F049F9012001F0D6F995ED010AA4
:10512000B3EE04AA80EE0A0A20460621F0EE480AF1
:1051300000F03AF9012001F0C7F995ED020A204686
:1051400080EE090A0721F0EE480A00F02DF901204F
:1051500001F0BAF995ED030A204680EE0A0A08210B
:10516000F0EE480A00F020F90120BDEC068BBDE806
:10517000B04001F0A9B9000082B0FCF753F8FFF786
:10518000E9F8FEF709FEFEF7A1FDFEF75FFDFEF769
:105190007DFDFEF79BFEFEF7BFFEFEF7E3FEFEF78A
:1051A00041FFFEF763FFFEF77FFFFEF701FFFEF70B
:1051B00099FF45F6D9404FF0000CC0F600000AA157
:1051C0004FF480720023CDF800C0CDF804C001F088
:1051D000B9FB012806D1FEF7B7FD00F0B1F800BF1A
:1051E000FEE700BFFEE700BF73746172745F746115
:1051F000736B000084464CF80C1F037411784174E3
:10520000517881749178C174D178017511794175A3
:10521000517981759179C175D27961460276FEF72F
:10522000ABB90000B0B582B00446C4E900120381F6
:10523000FDF7E4FF40F2A475C2F2000528703220A9
:10524000FBF7E4FE20460F210222FEF721FB287027
:1052500020468021FEF730FC38B90020019001AAD9
:10526000204620210423FEF7ADFC20468021FEF7D6
:1052700023FC38B90020019001AA204624210423F0
:10528000FEF7A0FC20468021FEF716FC38B900206E
:10529000019001AA204600210423FEF793FC20463A
:1052A0008021FEF709FC38B90020019001AA2046B0
:1052B00004210423FEF786FC20468021FEF7FCFB38
:1052C00038B90020019001AA204608210423FEF7E6
:1052D00079FC20468021FEF7EFFB38B900200190D1
:1052E00001AA204610210423FEF76CFC20468021F1
:1052F000FEF7E2FB38B90020019001AA20461421F4
:105300000423FEF75FFC20468021FEF7D5FB38B969
:105310000020019001AA204618210423FEF752FC28
:1053200020460021FEF7C8FB287002B0B0BD000087
:1053300080B5012898BF012001F0C6F8002080BD8B
:1053400080B501F095F9002080BD0000B0B584B0B3
:1053500043698E4693B1846984B10589D0E9001C04
:10536000026928B2843D18BFC51CCDE900536046D0
:105370007346029401F016FB04B0B0BD0589D0E974
:105380000013028A28B2843D18BFC51C03AC18461E
:105390007346CDE9005401F0D5FA0399012818BFEE
:1053A0000021084604B0B0BD80B58AB010EE102AC6
:1053B000130A01F580718DF804208DF80530130C67
:1053C000120E8DF8072010EE902A89B28DF8063063
:1053D000130A039100218DF808208DF80930130C71
:1053E000120ECDE90411069108218DF80A308DF8CE
:1053F0000B20079103A901AA09ABFAF7B1FF0AB084
:1054000080BD000080B582B010EE102A130A8DF81E
:1054100000208DF80130130C120E8DF8032010EED1
:10542000902A8DF80230130A01F580718DF804205E
:105430008DF80530130C120E8DF806308DF807200C
:1054400089B26A460823FFF7D5FE02B080BD00008E
:105450002DE9F041044600F071FF40F23C06C2F233
:105460000006306940F2D075013030613068C2F218
:10547000000548B17069002840D13068E16AC06A0F
:10548000884298BF346039E034603069012835D1F2
:10549000284600F0F9FE05F1140000F0F5FE05F1D4
:1054A000280000F0F1FE05F13C0000F0EDFE05F1F2
:1054B000500000F0E9FE05F1640000F0E5FE05F1A2
:1054C000780000F0E1FE40F25018C2F200084046B9
:1054D00000F0DAFE08F11407384600F0D5FE06F1B8
:1054E000640000F0D1FE06F13C0000F0CDFE06F1B4
:1054F000500000F0C9FEC6F8308077637068B1686C
:1055000001220131B160E16A8A401043706001EB11
:10551000810005EB8000211D00F0F8FE00F032FF55
:10552000706988B13068E16AC06A884228BFBDE806
:10553000F0814EF60450CEF200004FF08051016031
:10554000BFF34F8FBFF36F8FBDE8F08140F23C0592
:1055500040F2D0764EF60458C2F20005C2F20006C0
:10556000CEF200084FF0805703E000BF204600F065
:1055700021FFE868D0B100F0E1FEA86CC468201DEE
:1055800000F062FE286901382861E8680138E860A7
:1055900000F0F8FE94F851000228EAD00128E5D086
:1055A00070B9206B00F006FFE0E700BF306802280A
:1055B000DFD3C8F80070BFF34F8FBFF36F8FD8E70A
:1055C0004FF0500080F31188BFF36F8FBFF34F8F00
:1055D000FEE700002DE9F047DDE909878246386BD8
:1055E000089C00EB820004389946002920F0070649
:1055F00044D0087887F83400D8B3487887F8350065
:10560000B8B3887887F8360098B3C87887F8370039
:1056100078B3087987F8380058B3487987F83900A3
:1056200038B3887987F83A0018B3C87987F83B000F
:10563000F8B1087A87F83C00D8B1487A87F83D007D
:10564000B8B1887A87F83E0098B1C87A87F83F00E9
:1056500078B1087B87F8400058B1487B87F8410053
:1056600038B1887B87F8420000281CBFC87B87F8C8
:105670004300002087F8430003E000BF002087F8C4
:1056800034000025381D062C28BF0624FC62C7E91B
:10569000114500F005FE07F1180000F001FE84F04E
:1056A0000700B861304651464A463F617F62FD645B
:1056B00087F8505000F030F9B8F1000F386018BF8B
:1056C000C8F80070BDE8F08708480068006880F3FB
:1056D00008884FF0000080F3148862B661B6BFF30B
:1056E0004F8FBFF36F8F00DF00BF000008ED00E0B9
:1056F00081B00020009040F21800C2F20000006863
:105700004FF0500181F31188BFF36F8FBFF34F8FBC
:10571000013007D0FEE700BF009830B9009820B9EB
:10572000009810B900980028F6D001B0704700002A
:1057300070B5044601F002F840F2B40CC2F2000C5D
:10574000DCF8042012B19CF8000021E040F695003E
:10575000C2F20000420744F62062024400F1070151
:1057600022F0070218BF21F007000021A2F1080370
:10577000CCE90601CCF8043042E90211DCF804203F
:10578000191AC0E900210120CCE902118CF80000AF
:105790000025002C4FF0000148BF012159D00840DE
:1057A00057D124F0070000F11003600708BF04F18F
:1057B0000803DCF80800591E81424AD2604650F8BE
:1057C00018EFDEF804509D422BD2DEF80010B9B17C
:1057D00074464D689D4217D20E68AEB175689D4201
:1057E00016D23068A0B145689D4215D204689CB1BC
:1057F00065689D4214D22168A6460029E9D110E0CF
:105800000CF118000DE000BF8E46204609E000BFF5
:10581000B646084605E000BF8646304601E000BFB8
:10582000A646964514D00268DEF80040E91A112910
:1058300004604FD30EEB0305680719D04FF05000FA
:1058400080F31188BFF36F8FBFF34F8FFEE700BF68
:10585000002501F06DF968075CD04FF0500080F32F
:105860001188BFF36F8FBFF34F8F00BFFEE700BFFC
:105870000CF118006960CEF8043000BF0168A9423D
:105880000AD20868A8420BD20168A94204D208686B
:105890000B46A842F2D304E00346084601E000BFED
:1058A0000B465C6869681E19AE4202D121441D4650
:1058B00059606C18844201D0044607E0DCF80440CB
:1058C000A04203D0D0E9004008446860AB422C609D
:1058D00018BF1D60DEF80400DCE9021302F10805C0
:1058E000091A9942CCF8081038BFCCF80C109CF873
:1058F000001000294FF0000118BF40F00040CEE931
:105900000010DCF810000130CCF8100001F010F9A4
:105910006807A2D1284670BD034645F2F16021F028
:105920000101C0F600004FF0807C03E903106FF026
:105930000201A3F1440043E90912704770B540F633
:105940007C04C2F20004E17D002967D121780F298F
:1059500064D1217E002961D16178A27862F30A21A5
:105960000180A178E278C90862F34A114180227966
:105970006379E178920063F38A2242EA911181808F
:105980006179A279490862F3CA11C180A179E279EB
:10599000090962F30A110181217A637A490063F3EC
:1059A0004A2141EAD2114181A27A9908E37A62F34D
:1059B0008A118181D90041EA5211227B637BC18126
:1059C00063F30A220282A27BD908E37B62F34A11C5
:1059D00041829900237C667C63F38A2141EA92111B
:1059E0008182590866F3CA11A27CC1823109E37C25
:1059F00062F30A1101835900237D667D63F34A2116
:105A000041EAD21141839908A27D66F38A1181830C
:105A1000D10041EA5611C18370BD00BF40F24C7500
:105A2000C2F2000506462846FCF7F8FC0020C4E94F
:105A30000000C4E90200C4E90400207630463221A7
:105A4000FAF708FC284621461922BDE87040FDF708
:105A500043BA000040F24C7040F67C01C2F20000F4
:105A6000C2F200011922FDF737BA000040F65C04CB
:105A700040F67C0740F22005DFED8C9A9FED928A7C
:105A80009FED929A9FED8CAA9FED8CBA9FED8CCAE8
:105A90009FED8CDA9FED86EA9FED86FAC2F2000454
:105AA000C2F20007C2F2000540F2A56A40F2A46902
:105AB0004FF0000BF6EE008A0CE000BFAE702878C5
:105AC00000284FF00A0004BFC5E902BBC5F810B0BA
:105AD00000F0FAFC2046FFF731FFF87D38B938783E
